{
  "_format": "hh-sol-artifact-1",
  "contractName": "WorldCupDistributor",
  "sourceName": "contracts/WorldCupDistributor.sol",
  "abi": [
    {
      "inputs": [
        {
          "internalType": "address",
          "name": "token_",
          "type": "address"
        }
      ],
      "stateMutability": "nonpayable",
      "type": "constructor"
    },
    {
      "anonymous": false,
      "inputs": [
        {
          "indexed": true,
          "internalType": "address",
          "name": "pool",
          "type": "address"
        },
        {
          "indexed": true,
          "internalType": "address",
          "name": "user",
          "type": "address"
        },
        {
          "indexed": true,
          "internalType": "uint256",
          "name": "amount",
          "type": "uint256"
        },
        {
          "indexed": false,
          "internalType": "uint256",
          "name": "index",
          "type": "uint256"
        }
      ],
      "name": "Claimed",
      "type": "event"
    },
    {
      "anonymous": false,
      "inputs": [
        {
          "indexed": true,
          "internalType": "bytes32",
          "name": "merkleRoot",
          "type": "bytes32"
        },
        {
          "indexed": true,
          "internalType": "uint256",
          "name": "index",
          "type": "uint256"
        },
        {
          "indexed": false,
          "internalType": "uint256",
          "name": "amount",
          "type": "uint256"
        },
        {
          "indexed": false,
          "internalType": "uint256",
          "name": "settleBlockNumber",
          "type": "uint256"
        }
      ],
      "name": "DistributeReward",
      "type": "event"
    },
    {
      "inputs": [
        {
          "internalType": "uint256",
          "name": "index",
          "type": "uint256"
        },
        {
          "internalType": "uint256",
          "name": "amount",
          "type": "uint256"
        },
        {
          "internalType": "bytes32[]",
          "name": "proof",
          "type": "bytes32[]"
        }
      ],
      "name": "claim",
      "outputs": [],
      "stateMutability": "nonpayable",
      "type": "function"
    },
    {
      "inputs": [
        {
          "internalType": "address",
          "name": "to",
          "type": "address"
        }
      ],
      "name": "claimRestTokens",
      "outputs": [
        {
          "internalType": "bool",
          "name": "",
          "type": "bool"
        }
      ],
      "stateMutability": "nonpayable",
      "type": "function"
    },
    {
      "inputs": [
        {
          "internalType": "uint256",
          "name": "_index",
          "type": "uint256"
        },
        {
          "internalType": "uint256",
          "name": "_amount",
          "type": "uint256"
        },
        {
          "internalType": "uint256",
          "name": "_settleBlockNumber",
          "type": "uint256"
        },
        {
          "internalType": "bytes32",
          "name": "_merkleRoot",
          "type": "bytes32"
        }
      ],
      "name": "distributeReward",
      "outputs": [],
      "stateMutability": "nonpayable",
      "type": "function"
    },
    {
      "inputs": [
        {
          "internalType": "uint256",
          "name": "index",
          "type": "uint256"
        },
        {
          "internalType": "address",
          "name": "user",
          "type": "address"
        }
      ],
      "name": "isClaimed",
      "outputs": [
        {
          "internalType": "bool",
          "name": "",
          "type": "bool"
        }
      ],
      "stateMutability": "view",
      "type": "function"
    },
    {
      "inputs": [
        {
          "internalType": "uint256",
          "name": "",
          "type": "uint256"
        }
      ],
      "name": "merkleDistributors",
      "outputs": [
        {
          "internalType": "bytes32",
          "name": "merkleRoot",
          "type": "bytes32"
        },
        {
          "internalType": "uint256",
          "name": "index",
          "type": "uint256"
        },
        {
          "internalType": "uint256",
          "name": "amount",
          "type": "uint256"
        },
        {
          "internalType": "uint256",
          "name": "settleBlockNumber",
          "type": "uint256"
        }
      ],
      "stateMutability": "view",
      "type": "function"
    },
    {
      "inputs": [],
      "name": "merkleRoot",
      "outputs": [
        {
          "internalType": "bytes32",
          "name": "",
          "type": "bytes32"
        }
      ],
      "stateMutability": "view",
      "type": "function"
    },
    {
      "inputs": [],
      "name": "owner",
      "outputs": [
        {
          "internalType": "address",
          "name": "",
          "type": "address"
        }
      ],
      "stateMutability": "view",
      "type": "function"
    },
    {
      "inputs": [],
      "name": "token",
      "outputs": [
        {
          "internalType": "address",
          "name": "",
          "type": "address"
        }
      ],
      "stateMutability": "view",
      "type": "function"
    }
  ],
  "bytecode": "0x60a060405234801561001057600080fd5b50604051610ef2380380610ef283398101604081905261002f91610052565b6001600160a01b0316608052600480546001600160a01b03191633179055610082565b60006020828403121561006457600080fd5b81516001600160a01b038116811461007b57600080fd5b9392505050565b608051610e396100b96000396000818161019001528181610268015281816107aa0152818161085a01526108fc0152610e396000f3fe608060405234801561001057600080fd5b50600436106100885760003560e01c8063ae0b51df1161005b578063ae0b51df1461011c578063d2ef07951461012f578063dd1eb0e314610178578063fc0c546a1461018b57600080fd5b806316407e101461008d5780632eb4a7ab146100a2578063797c3c59146100be5780638da5cb5b146100f1575b600080fd5b6100a061009b366004610bf7565b6101b2565b005b6100ab60005481565b6040519081526020015b60405180910390f35b6100d16100cc366004610c29565b610547565b6040805194855260208501939093529183015260608201526080016100b5565b600454610104906001600160a01b031681565b6040516001600160a01b0390911681526020016100b5565b6100a061012a366004610c42565b610581565b61016861013d366004610ce1565b60009182526001602090815260408084206001600160a01b0393909316845291905290205460ff1690565b60405190151581526020016100b5565b610168610186366004610d0d565b610828565b6101047f000000000000000000000000000000000000000000000000000000000000000081565b6004546001600160a01b031633146102035760405162461bcd60e51b815260206004820152600f60248201526e6e6f7420617574686f72697a65642160881b60448201526064015b60405180910390fd5b600081905560025484146102505760405162461bcd60e51b8152602060048201526014602482015273696e64657820616c72656164792065786973747360601b60448201526064016101fa565b6040516370a0823160e01b81523060048201526000907f00000000000000000000000000000000000000000000000000000000000000006001600160a01b0316906370a082319060240160206040518083038186803b1580156102b257600080fd5b505afa1580156102c6573d6000803e3d6000fd5b505050506040513d601f19601f820116820180604052508101906102ea9190610d2f565b90508381101561033c5760405162461bcd60e51b815260206004820152601960248201527f496e73756666696369656e74207265776172642066756e64730000000000000060448201526064016101fa565b8243101561037b5760405162461bcd60e51b815260206004820152600c60248201526b10b13637b1b5a73ab6b132b960a11b60448201526064016101fa565b6002541561043457600280546000919061039790600190610d5e565b815481106103a7576103a7610d75565b90600052602060002090600402016040518060800160405290816000820154815260200160018201548152602001600282015481526020016003820154815250509050838160600151106104325760405162461bcd60e51b815260206004820152601260248201527110b9b2ba3a3632a13637b1b5a73ab6b132b960711b60448201526064016101fa565b505b604080516080810182528381526020808201888152828401888152606084018881526002805460018101825560009190915294517f405787fa12a823e0f2b7631cc41b3ba8828b3321ca811111fa75cd3aa3bb5ace60049096029586015591517f405787fa12a823e0f2b7631cc41b3ba8828b3321ca811111fa75cd3aa3bb5acf850155517f405787fa12a823e0f2b7631cc41b3ba8828b3321ca811111fa75cd3aa3bb5ad0840155517f405787fa12a823e0f2b7631cc41b3ba8828b3321ca811111fa75cd3aa3bb5ad1909201919091558151868152908101859052869184917fc26b9625510558a10dd1a095994ee8abd0d986de4e39e8c376223bc6abc4af50910160405180910390a35050505050565b6002818154811061055757600080fd5b60009182526020909120600490910201805460018201546002830154600390930154919350919084565b600254339085106105c45760405162461bcd60e51b815260206004820152600d60248201526c092dcecc2d8d2c840d2dcc8caf609b1b60448201526064016101fa565b60008581526001602090815260408083206001600160a01b038516845290915290205460ff161561062f5760405162461bcd60e51b8152602060048201526015602482015274223937b81030b63932b0b23c9031b630b4b6b2b21760591b60448201526064016101fa565b60006002868154811061064457610644610d75565b9060005260206000209060040201905084816002015410156106995760405162461bcd60e51b815260206004820152600e60248201526d139bdd081cdd59999a58da595b9d60921b60448201526064016101fa565b60408051602081018890526bffffffffffffffffffffffff19606085901b1691810191909152605481018690526000906074016040516020818303038152906040528051906020012090506107248585808060200260200160405190810160405280939291908181526020018383602002808284376000920191909152505085549150849050610a17565b6107615760405162461bcd60e51b815260206004820152600e60248201526d24b73b30b634b210383937b7b31760911b60448201526064016101fa565b8582600201546107719190610d5e565b600283015560008781526001602081815260408084206001600160a01b0380891686529252909220805460ff191690911790556107d1907f0000000000000000000000000000000000000000000000000000000000000000163388610ac6565b85836001600160a01b0316306001600160a01b03167f2f6639d24651730c7bf57c95ddbf96d66d11477e4ec626876f92c22e5f365e688a60405161081791815260200190565b60405180910390a450505050505050565b6004546000906001600160a01b0316331461084257600080fd5b6040516370a0823160e01b81523060048201526000907f00000000000000000000000000000000000000000000000000000000000000006001600160a01b0316906370a082319060240160206040518083038186803b1580156108a457600080fd5b505afa1580156108b8573d6000803e3d6000fd5b505050506040513d601f19601f820116820180604052508101906108dc9190610d2f565b10156108e757600080fd5b6040516370a0823160e01b81523060048201527f00000000000000000000000000000000000000000000000000000000000000006001600160a01b03169063a9059cbb90849083906370a082319060240160206040518083038186803b15801561095057600080fd5b505afa158015610964573d6000803e3d6000fd5b505050506040513d601f19601f820116820180604052508101906109889190610d2f565b6040516001600160e01b031960e085901b1681526001600160a01b0390921660048301526024820152604401602060405180830381600087803b1580156109ce57600080fd5b505af11580156109e2573d6000803e3d6000fd5b505050506040513d601f19601f82011682018060405250810190610a069190610d8b565b610a0f57600080fd5b506001919050565b600081815b8551811015610abb576000868281518110610a3957610a39610d75565b60200260200101519050808311610a7b576040805160208101859052908101829052606001604051602081830303815290604052805190602001209250610aa8565b60408051602081018390529081018490526060016040516020818303038152906040528051906020012092505b5080610ab381610dad565b915050610a1c565b509092149392505050565b604080516001600160a01b038481166024830152604480830185905283518084039091018152606490920183526020820180516001600160e01b031663a9059cbb60e01b1790529151600092839290871691610b229190610dc8565b6000604051808303816000865af19150503d8060008114610b5f576040519150601f19603f3d011682016040523d82523d6000602084013e610b64565b606091505b5091509150818015610b8e575080511580610b8e575080806020019051810190610b8e9190610d8b565b610bf05760405162461bcd60e51b815260206004820152602d60248201527f5472616e7366657248656c7065723a3a736166655472616e736665723a20747260448201526c185b9cd9995c8819985a5b1959609a1b60648201526084016101fa565b5050505050565b60008060008060808587031215610c0d57600080fd5b5050823594602084013594506040840135936060013592509050565b600060208284031215610c3b57600080fd5b5035919050565b60008060008060608587031215610c5857600080fd5b8435935060208501359250604085013567ffffffffffffffff80821115610c7e57600080fd5b818701915087601f830112610c9257600080fd5b813581811115610ca157600080fd5b8860208260051b8501011115610cb657600080fd5b95989497505060200194505050565b80356001600160a01b0381168114610cdc57600080fd5b919050565b60008060408385031215610cf457600080fd5b82359150610d0460208401610cc5565b90509250929050565b600060208284031215610d1f57600080fd5b610d2882610cc5565b9392505050565b600060208284031215610d4157600080fd5b5051919050565b634e487b7160e01b600052601160045260246000fd5b600082821015610d7057610d70610d48565b500390565b634e487b7160e01b600052603260045260246000fd5b600060208284031215610d9d57600080fd5b81518015158114610d2857600080fd5b6000600019821415610dc157610dc1610d48565b5060010190565b6000825160005b81811015610de95760208186018101518583015201610dcf565b81811115610df8576000828501525b50919091019291505056fea264697066735822122090e7a2b20dbaa95210875c7170e55725740be9637f1deac0edc8a71f1f6d39a164736f6c63430008090033",
  "linkReferences": {},
  "deployedLinkReferences": {}
}